{
  "contractName": "MonaLease",
  "abi": [
    {
      "constant": true,
      "inputs": [],
      "name": "lastWeiPerFiat",
      "outputs": [
        {
          "name": "",
          "type": "uint256"
        }
      ],
      "payable": false,
      "stateMutability": "view",
      "type": "function"
    },
    {
      "constant": true,
      "inputs": [],
      "name": "lastEthPriceAsFiat",
      "outputs": [
        {
          "name": "",
          "type": "uint256"
        }
      ],
      "payable": false,
      "stateMutability": "view",
      "type": "function"
    },
    {
      "constant": true,
      "inputs": [
        {
          "name": "",
          "type": "address"
        }
      ],
      "name": "renters",
      "outputs": [
        {
          "name": "addr",
          "type": "address"
        },
        {
          "name": "name",
          "type": "string"
        },
        {
          "name": "email",
          "type": "string"
        },
        {
          "name": "weiHeld",
          "type": "uint256"
        },
        {
          "name": "leaseStartDate",
          "type": "uint256"
        },
        {
          "name": "lastPaymentDate",
          "type": "uint256"
        },
        {
          "name": "owesWei",
          "type": "uint256"
        },
        {
          "name": "inDefault",
          "type": "bool"
        },
        {
          "name": "_assigned",
          "type": "bool"
        }
      ],
      "payable": false,
      "stateMutability": "view",
      "type": "function"
    },
    {
      "constant": true,
      "inputs": [],
      "name": "description",
      "outputs": [
        {
          "name": "",
          "type": "string"
        }
      ],
      "payable": false,
      "stateMutability": "view",
      "type": "function"
    },
    {
      "constant": true,
      "inputs": [
        {
          "name": "",
          "type": "address"
        },
        {
          "name": "",
          "type": "uint256"
        }
      ],
      "name": "payments",
      "outputs": [
        {
          "name": "datePaid",
          "type": "uint256"
        },
        {
          "name": "fromAddr",
          "type": "address"
        },
        {
          "name": "weiPaid",
          "type": "uint256"
        },
        {
          "name": "fiatPaid",
          "type": "uint256"
        }
      ],
      "payable": false,
      "stateMutability": "view",
      "type": "function"
    },
    {
      "constant": true,
      "inputs": [],
      "name": "rentalFiatAmount",
      "outputs": [
        {
          "name": "",
          "type": "uint256"
        }
      ],
      "payable": false,
      "stateMutability": "view",
      "type": "function"
    },
    {
      "constant": true,
      "inputs": [],
      "name": "rentalInterval",
      "outputs": [
        {
          "name": "",
          "type": "uint256"
        }
      ],
      "payable": false,
      "stateMutability": "view",
      "type": "function"
    },
    {
      "constant": true,
      "inputs": [
        {
          "name": "",
          "type": "uint256"
        }
      ],
      "name": "renterList",
      "outputs": [
        {
          "name": "",
          "type": "address"
        }
      ],
      "payable": false,
      "stateMutability": "view",
      "type": "function"
    },
    {
      "inputs": [
        {
          "name": "_description",
          "type": "string"
        },
        {
          "name": "_rentalInterval",
          "type": "uint256"
        },
        {
          "name": "_rentalFiatAmount",
          "type": "uint256"
        },
        {
          "name": "_oracle",
          "type": "address"
        }
      ],
      "payable": false,
      "stateMutability": "nonpayable",
      "type": "constructor"
    },
    {
      "payable": true,
      "stateMutability": "payable",
      "type": "fallback"
    },
    {
      "anonymous": false,
      "inputs": [
        {
          "indexed": false,
          "name": "renterAddress",
          "type": "address"
        }
      ],
      "name": "rentPaid",
      "type": "event"
    },
    {
      "anonymous": false,
      "inputs": [
        {
          "indexed": false,
          "name": "renterAddress",
          "type": "address"
        }
      ],
      "name": "rentDefault",
      "type": "event"
    },
    {
      "anonymous": false,
      "inputs": [
        {
          "indexed": false,
          "name": "renterAddress",
          "type": "address"
        }
      ],
      "name": "paymentAccepted",
      "type": "event"
    },
    {
      "anonymous": false,
      "inputs": [
        {
          "indexed": false,
          "name": "renterAddress",
          "type": "address"
        }
      ],
      "name": "paymentDeclined",
      "type": "event"
    },
    {
      "anonymous": false,
      "inputs": [
        {
          "indexed": false,
          "name": "_description",
          "type": "string"
        }
      ],
      "name": "newLogEntry",
      "type": "event"
    },
    {
      "constant": false,
      "inputs": [
        {
          "name": "_name",
          "type": "string"
        },
        {
          "name": "_email",
          "type": "string"
        }
      ],
      "name": "signLease",
      "outputs": [],
      "payable": false,
      "stateMutability": "nonpayable",
      "type": "function"
    },
    {
      "constant": true,
      "inputs": [
        {
          "name": "_renterAddress",
          "type": "address"
        }
      ],
      "name": "getNumberPayments",
      "outputs": [
        {
          "name": "",
          "type": "uint256"
        }
      ],
      "payable": false,
      "stateMutability": "view",
      "type": "function"
    },
    {
      "constant": false,
      "inputs": [
        {
          "name": "_renterAddress",
          "type": "address"
        }
      ],
      "name": "deposit",
      "outputs": [],
      "payable": true,
      "stateMutability": "payable",
      "type": "function"
    },
    {
      "constant": false,
      "inputs": [],
      "name": "run",
      "outputs": [],
      "payable": false,
      "stateMutability": "nonpayable",
      "type": "function"
    },
    {
      "constant": true,
      "inputs": [
        {
          "name": "_renterAddress",
          "type": "address"
        }
      ],
      "name": "getAmountDue",
      "outputs": [
        {
          "name": "",
          "type": "uint256"
        }
      ],
      "payable": false,
      "stateMutability": "view",
      "type": "function"
    },
    {
      "constant": true,
      "inputs": [
        {
          "name": "fiatValue",
          "type": "uint256"
        }
      ],
      "name": "fiatToWei",
      "outputs": [
        {
          "name": "fiatAsWei",
          "type": "uint256"
        }
      ],
      "payable": false,
      "stateMutability": "view",
      "type": "function"
    },
    {
      "constant": false,
      "inputs": [
        {
          "name": "exchangeRate",
          "type": "uint256"
        }
      ],
      "name": "giveExchangeRateAdvice",
      "outputs": [],
      "payable": false,
      "stateMutability": "nonpayable",
      "type": "function"
    }
  ],
  "bytecode": "0x608060405261b98c6004553480156200001757600080fd5b5060405162001b4538038062001b4583398101806040528101908080518201929190602001805190602001909291908051906020019092919080519060200190929190505050336000806101000a81548173ffffffffffffffffffffffffffffffffffffffff021916908373ffffffffffffffffffffffffffffffffffffffff1602179055508360019080519060200190620000b59291906200010f565b50826002819055508160038190555080600b60006101000a81548173ffffffffffffffffffffffffffffffffffffffff021916908373ffffffffffffffffffffffffffffffffffffffff16021790555050505050620001be565b828054600181600116156101000203166002900490600052602060002090601f016020900481019282601f106200015257805160ff191683800117855562000183565b8280016001018555821562000183579182015b828111156200018257825182559160200191906001019062000165565b5b50905062000192919062000196565b5090565b620001bb91905b80821115620001b75760008160009055506001016200019d565b5090565b90565b61197780620001ce6000396000f3006080604052600436106100db576000357c0100000000000000000000000000000000000000000000000000000000900463ffffffff1680630d469483146100e75780631695533d14610128578063302bf83b146101d7578063322eab461461020257806338c0a04c1461022d578063644a1370146102845780637284e4161461041157806375355e34146104a1578063ab63385c146104ce578063c040622614610570578063e25e1d6914610587578063e3edbfd3146105b2578063f227c22c14610609578063f340fa0114610634578063f8d9db8f1461066a575b6100e533346106d7565b005b3480156100f357600080fd5b5061011260048036038101908080359060200190929190505050610825565b6040518082815260200191505060405180910390f35b34801561013457600080fd5b506101d5600480360381019080803590602001908201803590602001908080601f0160208091040260200160405190810160405280939291908181526020018383808284378201915050505050509192919290803590602001908201803590602001908080601f0160208091040260200160405190810160405280939291908181526020018383808284378201915050505050509192919290505050610846565b005b3480156101e357600080fd5b506101ec610aca565b6040518082815260200191505060405180910390f35b34801561020e57600080fd5b50610217610ad0565b6040518082815260200191505060405180910390f35b34801561023957600080fd5b5061026e600480360381019080803573ffffffffffffffffffffffffffffffffffffffff169060200190929190505050610ad6565b6040518082815260200191505060405180910390f35b34801561029057600080fd5b506102c5600480360381019080803573ffffffffffffffffffffffffffffffffffffffff169060200190929190505050610b22565b604051808a73ffffffffffffffffffffffffffffffffffffffff1673ffffffffffffffffffffffffffffffffffffffff1681526020018060200180602001898152602001888152602001878152602001868152602001851515151581526020018415151515815260200183810383528b818151815260200191508051906020019080838360005b8381101561036757808201518184015260208101905061034c565b50505050905090810190601f1680156103945780820380516001836020036101000a031916815260200191505b5083810382528a818151815260200191508051906020019080838360005b838110156103cd5780820151818401526020810190506103b2565b50505050905090810190601f1680156103fa5780820380516001836020036101000a031916815260200191505b509b50505050505050505050505060405180910390f35b34801561041d57600080fd5b50610426610cda565b6040518080602001828103825283818151815260200191508051906020019080838360005b8381101561046657808201518184015260208101905061044b565b50505050905090810190601f1680156104935780820380516001836020036101000a031916815260200191505b509250505060405180910390f35b3480156104ad57600080fd5b506104cc60048036038101908080359060200190929190505050610d78565b005b3480156104da57600080fd5b50610519600480360381019080803573ffffffffffffffffffffffffffffffffffffffff16906020019092919080359060200190929190505050610e6a565b604051808581526020018473ffffffffffffffffffffffffffffffffffffffff1673ffffffffffffffffffffffffffffffffffffffff16815260200183815260200182815260200194505050505060405180910390f35b34801561057c57600080fd5b50610585610ed6565b005b34801561059357600080fd5b5061059c610fa5565b6040518082815260200191505060405180910390f35b3480156105be57600080fd5b506105f3600480360381019080803573ffffffffffffffffffffffffffffffffffffffff169060200190929190505050610fab565b6040518082815260200191505060405180910390f35b34801561061557600080fd5b5061061e610feb565b6040518082815260200191505060405180910390f35b610668600480360381019080803573ffffffffffffffffffffffffffffffffffffffff169060200190929190505050610ff1565b005b34801561067657600080fd5b5061069560048036038101908080359060200190929190505050610ffe565b604051808273ffffffffffffffffffffffffffffffffffffffff1673ffffffffffffffffffffffffffffffffffffffff16815260200191505060405180910390f35b6106e03361103c565b15156106eb57600080fd5b60008111801561070057506106ff8261103c565b5b156107bd5734600760008473ffffffffffffffffffffffffffffffffffffffff1673ffffffffffffffffffffffffffffffffffffffff168152602001908152602001600020600301600082825401925050819055507f569bfd1b450475abb105387eb78b154f74e4429de7c7301e7796a2880c23c49e82604051808273ffffffffffffffffffffffffffffffffffffffff1673ffffffffffffffffffffffffffffffffffffffff16815260200191505060405180910390a1610821565b7f3a3ca39c60519dc11c163d54b9ab8205543e1dfb45baf261f56052f58647682f82604051808273ffffffffffffffffffffffffffffffffffffffff1673ffffffffffffffffffffffffffffffffffffffff16815260200191505060405180910390a15b5050565b600081600454670de0b6b3a764000081151561083d57fe5b04029050919050565b61084e611800565b6108573361103c565b1561086157600080fd5b610120604051908101604052803373ffffffffffffffffffffffffffffffffffffffff16815260200184815260200183815260200160008152602001428152602001428152602001600081526020016000151581526020016001151581525090508060076000836000015173ffffffffffffffffffffffffffffffffffffffff1673ffffffffffffffffffffffffffffffffffffffff16815260200190815260200160002060008201518160000160006101000a81548173ffffffffffffffffffffffffffffffffffffffff021916908373ffffffffffffffffffffffffffffffffffffffff1602179055506020820151816001019080519060200190610969929190611867565b506040820151816002019080519060200190610986929190611867565b50606082015181600301556080820151816004015560a0820151816005015560c0820151816006015560e08201518160070160006101000a81548160ff0219169083151502179055506101008201518160070160016101000a81548160ff0219169083151502179055509050506008816000015190806001815401808255809150509060018203906000526020600020016000909192909190916101000a81548173ffffffffffffffffffffffffffffffffffffffff021916908373ffffffffffffffffffffffffffffffffffffffff160217905550507ffc259c995f3b1094a53469904177aa81084e21a71ab240d540f8b2fb2ca15ee360405180806020018281038252600c8152602001807f5369676e6564206c65617365000000000000000000000000000000000000000081525060200191505060405180910390a1505050565b60055481565b60045481565b6000600a60008373ffffffffffffffffffffffffffffffffffffffff1673ffffffffffffffffffffffffffffffffffffffff168152602001908152602001600020805490509050919050565b60076020528060005260406000206000915090508060000160009054906101000a900473ffffffffffffffffffffffffffffffffffffffff1690806001018054600181600116156101000203166002900480601f016020809104026020016040519081016040528092919081815260200182805460018160011615610100020316600290048015610bf45780601f10610bc957610100808354040283529160200191610bf4565b820191906000526020600020905b815481529060010190602001808311610bd757829003601f168201915b505050505090806002018054600181600116156101000203166002900480601f016020809104026020016040519081016040528092919081815260200182805460018160011615610100020316600290048015610c925780601f10610c6757610100808354040283529160200191610c92565b820191906000526020600020905b815481529060010190602001808311610c7557829003601f168201915b5050505050908060030154908060040154908060050154908060060154908060070160009054906101000a900460ff16908060070160019054906101000a900460ff16905089565b60018054600181600116156101000203166002900480601f016020809104026020016040519081016040528092919081815260200182805460018160011615610100020316600290048015610d705780601f10610d4557610100808354040283529160200191610d70565b820191906000526020600020905b815481529060010190602001808311610d5357829003601f168201915b505050505081565b600b60009054906101000a900473ffffffffffffffffffffffffffffffffffffffff1673ffffffffffffffffffffffffffffffffffffffff163373ffffffffffffffffffffffffffffffffffffffff16141515610dd457600080fd5b7ffc259c995f3b1094a53469904177aa81084e21a71ab240d540f8b2fb2ca15ee36040518080602001828103825260168152602001807f5265636569766564204f7261636c65206164766963650000000000000000000081525060200191505060405180910390a180600481905550600454670de0b6b3a7640000811515610e5857fe5b04600581905550610e67610ed6565b50565b600a60205281600052604060002081815481101515610e8557fe5b9060005260206000209060040201600091509150508060000154908060010160009054906101000a900473ffffffffffffffffffffffffffffffffffffffff16908060020154908060030154905084565b60007ffc259c995f3b1094a53469904177aa81084e21a71ab240d540f8b2fb2ca15ee36040518080602001828103825260058152602001807f52756e282900000000000000000000000000000000000000000000000000000081525060200191505060405180910390a1600090505b600880549050811015610fa257610f94600882815481101515610f6457fe5b9060005260206000200160009054906101000a900473ffffffffffffffffffffffffffffffffffffffff16611095565b508080600101915050610f45565b50565b60035481565b6000610fb5611800565b600080610fc1856115ad565b92508260a001514203915060025482811515610fd957fe5b04905060035481029350505050919050565b60025481565b610ffb81346106d7565b50565b60088181548110151561100d57fe5b906000526020600020016000915054906101000a900473ffffffffffffffffffffffffffffffffffffffff1681565b6000600760008373ffffffffffffffffffffffffffffffffffffffff1673ffffffffffffffffffffffffffffffffffffffff16815260200190815260200160002060070160019054906101000a900460ff169050919050565b60008060006110a26118e7565b6110ab85610fab565b92506110b683610825565b91506000821180156111095750600760008673ffffffffffffffffffffffffffffffffffffffff1673ffffffffffffffffffffffffffffffffffffffff1681526020019081526020016000206003015482115b1561121c5781600760008773ffffffffffffffffffffffffffffffffffffffff1673ffffffffffffffffffffffffffffffffffffffff168152602001908152602001600020600601819055506001600760008773ffffffffffffffffffffffffffffffffffffffff1673ffffffffffffffffffffffffffffffffffffffff16815260200190815260200160002060070160006101000a81548160ff0219169083151502179055507f19b89e312990f1a9aa3ef03b24de652a9072f56a8bce7644b3b8d891305d0fad85604051808273ffffffffffffffffffffffffffffffffffffffff1673ffffffffffffffffffffffffffffffffffffffff16815260200191505060405180910390a1600093506115a5565b81600760008773ffffffffffffffffffffffffffffffffffffffff1673ffffffffffffffffffffffffffffffffffffffff168152602001908152602001600020600301600082825403925050819055506000600760008773ffffffffffffffffffffffffffffffffffffffff1673ffffffffffffffffffffffffffffffffffffffff16815260200190815260200160002060070160006101000a81548160ff02191690831515021790555042600760008773ffffffffffffffffffffffffffffffffffffffff1673ffffffffffffffffffffffffffffffffffffffff168152602001908152602001600020600501819055506000600760008773ffffffffffffffffffffffffffffffffffffffff1673ffffffffffffffffffffffffffffffffffffffff1681526020019081526020016000206006018190555060008211156115a0576000809054906101000a900473ffffffffffffffffffffffffffffffffffffffff1673ffffffffffffffffffffffffffffffffffffffff166108fc839081150290604051600060405180830381858888f193505050501580156113c6573d6000803e3d6000fd5b507fa1c84e9116023626b77bda1fa15b7a58f715875390d6cdea5ae27f6d2d63101c85604051808273ffffffffffffffffffffffffffffffffffffffff1673ffffffffffffffffffffffffffffffffffffffff16815260200191505060405180910390a16080604051908101604052804281526020018673ffffffffffffffffffffffffffffffffffffffff168152602001838152602001848152509050600a60008673ffffffffffffffffffffffffffffffffffffffff1673ffffffffffffffffffffffffffffffffffffffff16815260200190815260200160002081908060018154018082558091505090600182039060005260206000209060040201600090919290919091506000820151816000015560208201518160010160006101000a81548173ffffffffffffffffffffffffffffffffffffffff021916908373ffffffffffffffffffffffffffffffffffffffff16021790555060408201518160020155606082015181600301555050507ffc259c995f3b1094a53469904177aa81084e21a71ab240d540f8b2fb2ca15ee36040518080602001828103825260048152602001807f73656e740000000000000000000000000000000000000000000000000000000081525060200191505060405180910390a15b600193505b505050919050565b6115b5611800565b600760008373ffffffffffffffffffffffffffffffffffffffff1673ffffffffffffffffffffffffffffffffffffffff16815260200190815260200160002061012060405190810160405290816000820160009054906101000a900473ffffffffffffffffffffffffffffffffffffffff1673ffffffffffffffffffffffffffffffffffffffff1673ffffffffffffffffffffffffffffffffffffffff168152602001600182018054600181600116156101000203166002900480601f0160208091040260200160405190810160405280929190818152602001828054600181600116156101000203166002900480156116f05780601f106116c5576101008083540402835291602001916116f0565b820191906000526020600020905b8154815290600101906020018083116116d357829003601f168201915b50505050508152602001600282018054600181600116156101000203166002900480601f0160208091040260200160405190810160405280929190818152602001828054600181600116156101000203166002900480156117925780601f1061176757610100808354040283529160200191611792565b820191906000526020600020905b81548152906001019060200180831161177557829003601f168201915b50505050508152602001600382015481526020016004820154815260200160058201548152602001600682015481526020016007820160009054906101000a900460ff161515151581526020016007820160019054906101000a900460ff1615151515815250509050919050565b61012060405190810160405280600073ffffffffffffffffffffffffffffffffffffffff1681526020016060815260200160608152602001600081526020016000815260200160008152602001600081526020016000151581526020016000151581525090565b828054600181600116156101000203166002900490600052602060002090601f016020900481019282601f106118a857805160ff19168380011785556118d6565b828001600101855582156118d6579182015b828111156118d55782518255916020019190600101906118ba565b5b5090506118e39190611926565b5090565b60806040519081016040528060008152602001600073ffffffffffffffffffffffffffffffffffffffff16815260200160008152602001600081525090565b61194891905b8082111561194457600081600090555060010161192c565b5090565b905600a165627a7a72305820b0656c19075be967683fe83cfbb6418b42a2cdcabb958d3857a8475430b98e630029",
  "source": "pragma solidity ^0.4.11;\r\n\r\ncontract MonaLease {\r\n\r\n    struct Renter {\r\n        address addr;\r\n        string name;\r\n        string email;\r\n        uint256 weiHeld;\r\n        uint256 leaseStartDate;\r\n        uint256 lastPaymentDate;\r\n        uint256 owesWei;\r\n        bool inDefault;\r\n        bool _assigned;\r\n    }\r\n\r\n    struct Payment {\r\n        uint256 datePaid;\r\n        address fromAddr;\r\n        uint256 weiPaid;\r\n        uint256 fiatPaid;\r\n    }\r\n\r\n    uint256 constant weiPerEther = 1000000000000000000;\r\n\r\n    address contractOwner;\r\n    string public description;\r\n    uint256 public rentalInterval;\r\n    uint256 public rentalFiatAmount;\r\n\r\n    uint256 public lastEthPriceAsFiat = 47500; //Default value\r\n    uint256 public lastWeiPerFiat;\r\n    uint256 rentalAmountAsWei;\r\n\r\n    mapping  (address => Renter) public renters;\r\n    address[] public renterList;\r\n    address[] rentersInDefault;\r\n    mapping (address  => Payment []) public payments;\r\n\r\n    address oracle;\r\n\r\n    event rentPaid(address renterAddress);\r\n    event rentDefault(address renterAddress);\r\n    event paymentAccepted(address renterAddress);\r\n    event paymentDeclined(address renterAddress);\r\n    event newLogEntry(string _description);\r\n\r\n    //Note that the rental amount is in AUD cents, eg 100 AU dollars would be 10000.\r\n    constructor (string _description, uint256 _rentalInterval, uint256 _rentalFiatAmount, address _oracle) public {\r\n        contractOwner = msg.sender;\r\n        description = _description;\r\n        rentalInterval = _rentalInterval;\r\n        rentalFiatAmount = _rentalFiatAmount;\r\n        oracle = _oracle;\r\n    }\r\n    \r\n    //Add a new renter\r\n    function signLease(string _name, string _email) public {\r\n        if(renterExists(msg.sender)) {\r\n            revert();\r\n        }\r\n        Renter memory _renter = Renter({\r\n            addr: msg.sender,\r\n            name: _name,\r\n            email: _email,\r\n            weiHeld: 0,\r\n            leaseStartDate: now,\r\n            lastPaymentDate: now,\r\n            owesWei: 0,\r\n            inDefault: false,\r\n            _assigned: true\r\n        });\r\n        renters[_renter.addr] = _renter;\r\n        renterList.push(_renter.addr);\r\n        emit newLogEntry(\"Signed lease\");\r\n    }\r\n\r\n\r\n    modifier onlyContractOwner() {\r\n        if (msg.sender != contractOwner) {\r\n            revert();\r\n        }\r\n        _;\r\n    }\r\n\r\n    modifier onlyRenters() {\r\n        if (!renterExists(msg.sender)) {\r\n            revert();\r\n        }\r\n        _;\r\n    }\r\n    \r\n    modifier onlyOracle() {\r\n        if (msg.sender != oracle) {\r\n            revert();\r\n        }\r\n        _;\r\n    }\r\n    \r\n    function getNumberPayments (address _renterAddress) public constant returns (uint256) {\r\n        return payments[_renterAddress].length;\r\n    }\r\n\r\n    function getRenter(address _renterAddress) internal constant returns (Renter) {\r\n        return renters[_renterAddress];\r\n    }\r\n\r\n    function renterExists(address _renterAddress) internal constant returns (bool) {\r\n        return (renters[_renterAddress]._assigned);\r\n    }\r\n\r\n    //Add ETH to a renter's purse\r\n    function deposit(address _renterAddress) payable public {\r\n        _depositForRenter(_renterAddress, msg.value);\r\n    }\r\n\r\n    //If renter is registered, deposit into balance\r\n    function _depositForRenter(address _renterAddress, uint256 amount) onlyRenters internal {\r\n        if (amount > 0 && renterExists(_renterAddress)) {\r\n            renters[_renterAddress].weiHeld += msg.value;\r\n            emit paymentAccepted(_renterAddress);\r\n        }\r\n        else {\r\n            emit paymentDeclined(_renterAddress);\r\n        }\r\n    }\r\n\r\n    //If ETH sent to this contract, attempt to deposit it for renter registered under the sender's address.\r\n    function () payable public {\r\n        _depositForRenter(msg.sender, msg.value);\r\n    }\r\n\r\n    //See if any rent is due, and if so, pay it.\r\n    function run() public {\r\n        emit newLogEntry(\"Run()\");\r\n        //For each renter, getAmountDue and pay it\r\n        for(uint i = 0; i < renterList.length; i++) {\r\n            takeRent(renterList[i]);\r\n        }\r\n    }\r\n\r\n    //Return amount due as AUD and ETH\r\n    function getAmountDue(address _renterAddress)  public constant returns (uint256) {\r\n        Renter memory renter = getRenter(_renterAddress);\r\n        uint timeElapsed = now - renter.lastPaymentDate;\r\n        uint intervalsElapsed = timeElapsed / rentalInterval;\r\n        return intervalsElapsed * rentalFiatAmount;\r\n    }\r\n\r\n    //If (and only if) rent is due, send it to the owner's account.\r\n    function takeRent(address _renterAddress) internal returns (bool) {\r\n       // Renter memory renter = getRenter(_renterAddress);\r\n        uint256 dueFiat = getAmountDue(_renterAddress);\r\n        uint256 dueWei = fiatToWei(dueFiat);\r\n\r\n        if (dueWei > 0 && dueWei > renters[_renterAddress].weiHeld) {\r\n            renters[_renterAddress].owesWei = dueWei;\r\n            renters[_renterAddress].inDefault = true;\r\n            emit rentDefault(_renterAddress);\r\n            return false;\r\n        }\r\n        else {\r\n            renters[_renterAddress].weiHeld -= dueWei;\r\n            renters[_renterAddress].inDefault = false;\r\n            renters[_renterAddress].lastPaymentDate = now;\r\n            renters[_renterAddress].owesWei = 0;\r\n            if (dueWei > 0) {\r\n                contractOwner.transfer(dueWei);\r\n                emit rentPaid(_renterAddress);\r\n                Payment memory _payment = Payment({\r\n                    datePaid: now,\r\n                    weiPaid: dueWei,\r\n                    fiatPaid: dueFiat,\r\n                    fromAddr: _renterAddress\r\n                });\r\n                payments[_renterAddress].push(_payment);\r\n                emit newLogEntry(\"sent\");\r\n            }\r\n            return true;\r\n        }\r\n    }\r\n    \r\n    function fiatToWei(uint256 fiatValue) public constant returns (uint256 fiatAsWei) {\r\n        fiatAsWei = (weiPerEther / lastEthPriceAsFiat) * fiatValue;\r\n    }\r\n\r\n    function giveExchangeRateAdvice(uint256 exchangeRate) onlyOracle public {\r\n        emit newLogEntry(\"Received Oracle advice\");\r\n        lastEthPriceAsFiat = exchangeRate;\r\n        lastWeiPerFiat = weiPerEther / lastEthPriceAsFiat;\r\n        run(); //Do a rent run\r\n    }\r\n}",
  "sourcePath": "C:\\Users\\Nor\\documents\\mona-lease\\contracts\\MonaLease.sol",
  "compiler": {
    "name": "solc",
    "version": "0.4.24+commit.e67f0147.Emscripten.clang"
  },
  "schemaVersion": "2.0.1",
  "updatedAt": "2018-07-01T11:28:50.416Z"
}