{
  "contractName": "MonaLease",
  "abi": [
    {
      "constant": true,
      "inputs": [],
      "name": "lastWeiPerFiat",
      "outputs": [
        {
          "name": "",
          "type": "uint256"
        }
      ],
      "payable": false,
      "stateMutability": "view",
      "type": "function"
    },
    {
      "constant": true,
      "inputs": [],
      "name": "lastEthPriceAsFiat",
      "outputs": [
        {
          "name": "",
          "type": "uint256"
        }
      ],
      "payable": false,
      "stateMutability": "view",
      "type": "function"
    },
    {
      "constant": true,
      "inputs": [
        {
          "name": "",
          "type": "address"
        }
      ],
      "name": "renters",
      "outputs": [
        {
          "name": "addr",
          "type": "address"
        },
        {
          "name": "name",
          "type": "string"
        },
        {
          "name": "email",
          "type": "string"
        },
        {
          "name": "weiHeld",
          "type": "uint256"
        },
        {
          "name": "leaseStartDate",
          "type": "uint256"
        },
        {
          "name": "lastPaymentDate",
          "type": "uint256"
        },
        {
          "name": "owesWei",
          "type": "uint256"
        },
        {
          "name": "inDefault",
          "type": "bool"
        },
        {
          "name": "_assigned",
          "type": "bool"
        }
      ],
      "payable": false,
      "stateMutability": "view",
      "type": "function"
    },
    {
      "constant": true,
      "inputs": [
        {
          "name": "",
          "type": "address"
        }
      ],
      "name": "payments",
      "outputs": [
        {
          "name": "datePaid",
          "type": "uint256"
        },
        {
          "name": "fromAddr",
          "type": "address"
        },
        {
          "name": "weiPaid",
          "type": "uint256"
        },
        {
          "name": "fiatPaid",
          "type": "uint256"
        }
      ],
      "payable": false,
      "stateMutability": "view",
      "type": "function"
    },
    {
      "constant": true,
      "inputs": [
        {
          "name": "",
          "type": "uint256"
        }
      ],
      "name": "renterList",
      "outputs": [
        {
          "name": "",
          "type": "address"
        }
      ],
      "payable": false,
      "stateMutability": "view",
      "type": "function"
    },
    {
      "inputs": [
        {
          "name": "_description",
          "type": "string"
        },
        {
          "name": "_rentalInterval",
          "type": "uint256"
        },
        {
          "name": "_rentalFiatAmount",
          "type": "uint256"
        },
        {
          "name": "_oracle",
          "type": "address"
        }
      ],
      "payable": false,
      "stateMutability": "nonpayable",
      "type": "constructor"
    },
    {
      "payable": true,
      "stateMutability": "payable",
      "type": "fallback"
    },
    {
      "anonymous": false,
      "inputs": [
        {
          "indexed": false,
          "name": "renterAddress",
          "type": "address"
        }
      ],
      "name": "rentPaid",
      "type": "event"
    },
    {
      "anonymous": false,
      "inputs": [
        {
          "indexed": false,
          "name": "renterAddress",
          "type": "address"
        }
      ],
      "name": "rentDefault",
      "type": "event"
    },
    {
      "anonymous": false,
      "inputs": [
        {
          "indexed": false,
          "name": "renterAddress",
          "type": "address"
        }
      ],
      "name": "paymentAccepted",
      "type": "event"
    },
    {
      "anonymous": false,
      "inputs": [
        {
          "indexed": false,
          "name": "renterAddress",
          "type": "address"
        }
      ],
      "name": "paymentDeclined",
      "type": "event"
    },
    {
      "anonymous": false,
      "inputs": [
        {
          "indexed": false,
          "name": "_description",
          "type": "string"
        }
      ],
      "name": "newLogEntry",
      "type": "event"
    },
    {
      "constant": false,
      "inputs": [
        {
          "name": "_name",
          "type": "string"
        },
        {
          "name": "_email",
          "type": "string"
        }
      ],
      "name": "signLease",
      "outputs": [],
      "payable": false,
      "stateMutability": "nonpayable",
      "type": "function"
    },
    {
      "constant": false,
      "inputs": [
        {
          "name": "_renterAddress",
          "type": "address"
        }
      ],
      "name": "deposit",
      "outputs": [],
      "payable": true,
      "stateMutability": "payable",
      "type": "function"
    },
    {
      "constant": false,
      "inputs": [],
      "name": "run",
      "outputs": [],
      "payable": false,
      "stateMutability": "nonpayable",
      "type": "function"
    },
    {
      "constant": true,
      "inputs": [
        {
          "name": "_renterAddress",
          "type": "address"
        }
      ],
      "name": "getAmountDue",
      "outputs": [
        {
          "name": "",
          "type": "uint256"
        }
      ],
      "payable": false,
      "stateMutability": "view",
      "type": "function"
    },
    {
      "constant": true,
      "inputs": [
        {
          "name": "fiatValue",
          "type": "uint256"
        }
      ],
      "name": "fiatToWei",
      "outputs": [
        {
          "name": "fiatAsWei",
          "type": "uint256"
        }
      ],
      "payable": false,
      "stateMutability": "view",
      "type": "function"
    },
    {
      "constant": false,
      "inputs": [
        {
          "name": "exchangeRate",
          "type": "uint256"
        }
      ],
      "name": "giveExchangeRateAdvice",
      "outputs": [],
      "payable": false,
      "stateMutability": "nonpayable",
      "type": "function"
    }
  ],
  "bytecode": "0x606060405261b98c60045534156200001657600080fd5b6040516200177d3803806200177d83398101604052808051820191906020018051906020019091908051906020019091908051906020019091905050336000806101000a81548173ffffffffffffffffffffffffffffffffffffffff021916908373ffffffffffffffffffffffffffffffffffffffff1602179055508360019080519060200190620000aa92919062000104565b50826002819055508160038190555080600b60006101000a81548173ffffffffffffffffffffffffffffffffffffffff021916908373ffffffffffffffffffffffffffffffffffffffff16021790555050505050620001b3565b828054600181600116156101000203166002900490600052602060002090601f016020900481019282601f106200014757805160ff191683800117855562000178565b8280016001018555821562000178579182015b82811115620001775782518255916020019190600101906200015a565b5b5090506200018791906200018b565b5090565b620001b091905b80821115620001ac57600081600090555060010162000192565b5090565b90565b6115ba80620001c36000396000f3006060604052600436106100af576000357c0100000000000000000000000000000000000000000000000000000000900463ffffffff1680630d469483146100bb5780631695533d146100f2578063302bf83b14610192578063322eab46146101bb578063644a1370146101e457806375355e34146103a1578063c0406226146103c4578063e2982c21146103d9578063e3edbfd314610467578063f340fa01146104b4578063f8d9db8f146104e2575b6100b93334610545565b005b34156100c657600080fd5b6100dc6004808035906020019091905050610693565b6040518082815260200191505060405180910390f35b34156100fd57600080fd5b610190600480803590602001908201803590602001908080601f0160208091040260200160405190810160405280939291908181526020018383808284378201915050505050509190803590602001908201803590602001908080601f016020809104026020016040519081016040528093929190818152602001838380828437820191505050505050919050506106b4565b005b341561019d57600080fd5b6101a5610935565b6040518082815260200191505060405180910390f35b34156101c657600080fd5b6101ce61093b565b6040518082815260200191505060405180910390f35b34156101ef57600080fd5b61021b600480803573ffffffffffffffffffffffffffffffffffffffff16906020019091905050610941565b604051808a73ffffffffffffffffffffffffffffffffffffffff1673ffffffffffffffffffffffffffffffffffffffff1681526020018060200180602001898152602001888152602001878152602001868152602001851515151581526020018415151515815260200183810383528b8181546001816001161561010002031660029004815260200191508054600181600116156101000203166002900480156103065780601f106102db57610100808354040283529160200191610306565b820191906000526020600020905b8154815290600101906020018083116102e957829003601f168201915b505083810382528a8181546001816001161561010002031660029004815260200191508054600181600116156101000203166002900480156103895780601f1061035e57610100808354040283529160200191610389565b820191906000526020600020905b81548152906001019060200180831161036c57829003601f168201915b50509b50505050505050505050505060405180910390f35b34156103ac57600080fd5b6103c260048080359060200190919050506109c7565b005b34156103cf57600080fd5b6103d7610ab9565b005b34156103e457600080fd5b610410600480803573ffffffffffffffffffffffffffffffffffffffff16906020019091905050610b89565b604051808581526020018473ffffffffffffffffffffffffffffffffffffffff1673ffffffffffffffffffffffffffffffffffffffff16815260200183815260200182815260200194505050505060405180910390f35b341561047257600080fd5b61049e600480803573ffffffffffffffffffffffffffffffffffffffff16906020019091905050610bd9565b6040518082815260200191505060405180910390f35b6104e0600480803573ffffffffffffffffffffffffffffffffffffffff16906020019091905050610c19565b005b34156104ed57600080fd5b6105036004808035906020019091905050610c26565b604051808273ffffffffffffffffffffffffffffffffffffffff1673ffffffffffffffffffffffffffffffffffffffff16815260200191505060405180910390f35b61054e33610c65565b151561055957600080fd5b60008111801561056e575061056d82610c65565b5b1561062b5734600760008473ffffffffffffffffffffffffffffffffffffffff1673ffffffffffffffffffffffffffffffffffffffff168152602001908152602001600020600301600082825401925050819055507f569bfd1b450475abb105387eb78b154f74e4429de7c7301e7796a2880c23c49e82604051808273ffffffffffffffffffffffffffffffffffffffff1673ffffffffffffffffffffffffffffffffffffffff16815260200191505060405180910390a161068f565b7f3a3ca39c60519dc11c163d54b9ab8205543e1dfb45baf261f56052f58647682f82604051808273ffffffffffffffffffffffffffffffffffffffff1673ffffffffffffffffffffffffffffffffffffffff16815260200191505060405180910390a15b5050565b600081600454670de0b6b3a76400008115156106ab57fe5b04029050919050565b6106bc6113f7565b6106c533610c65565b156106cf57600080fd5b610120604051908101604052803373ffffffffffffffffffffffffffffffffffffffff16815260200184815260200183815260200160008152602001428152602001428152602001600081526020016000151581526020016001151581525090508060076000836000015173ffffffffffffffffffffffffffffffffffffffff1673ffffffffffffffffffffffffffffffffffffffff16815260200190815260200160002060008201518160000160006101000a81548173ffffffffffffffffffffffffffffffffffffffff021916908373ffffffffffffffffffffffffffffffffffffffff16021790555060208201518160010190805190602001906107d792919061146a565b5060408201518160020190805190602001906107f492919061146a565b50606082015181600301556080820151816004015560a0820151816005015560c0820151816006015560e08201518160070160006101000a81548160ff0219169083151502179055506101008201518160070160016101000a81548160ff0219169083151502179055509050506008805480600101828161087591906114ea565b916000526020600020900160008360000151909190916101000a81548173ffffffffffffffffffffffffffffffffffffffff021916908373ffffffffffffffffffffffffffffffffffffffff160217905550507ffc259c995f3b1094a53469904177aa81084e21a71ab240d540f8b2fb2ca15ee360405180806020018281038252600c8152602001807f5369676e6564206c65617365000000000000000000000000000000000000000081525060200191505060405180910390a1505050565b60055481565b60045481565b60076020528060005260406000206000915090508060000160009054906101000a900473ffffffffffffffffffffffffffffffffffffffff1690806001019080600201908060030154908060040154908060050154908060060154908060070160009054906101000a900460ff16908060070160019054906101000a900460ff16905089565b600b60009054906101000a900473ffffffffffffffffffffffffffffffffffffffff1673ffffffffffffffffffffffffffffffffffffffff163373ffffffffffffffffffffffffffffffffffffffff16141515610a2357600080fd5b7ffc259c995f3b1094a53469904177aa81084e21a71ab240d540f8b2fb2ca15ee36040518080602001828103825260168152602001807f5265636569766564204f7261636c65206164766963650000000000000000000081525060200191505060405180910390a180600481905550600454670de0b6b3a7640000811515610aa757fe5b04600581905550610ab6610ab9565b50565b60007ffc259c995f3b1094a53469904177aa81084e21a71ab240d540f8b2fb2ca15ee36040518080602001828103825260058152602001807f52756e282900000000000000000000000000000000000000000000000000000081525060200191505060405180910390a1600090505b600880549050811015610b8657610b78600882815481101515610b4757fe5b906000526020600020900160009054906101000a900473ffffffffffffffffffffffffffffffffffffffff16610cbe565b508080600101915050610b28565b50565b600a6020528060005260406000206000915090508060000154908060010160009054906101000a900473ffffffffffffffffffffffffffffffffffffffff16908060020154908060030154905084565b6000610be36113f7565b600080610bef856111a4565b92508260a001514203915060025482811515610c0757fe5b04905060035481029350505050919050565b610c238134610545565b50565b600881815481101515610c3557fe5b90600052602060002090016000915054906101000a900473ffffffffffffffffffffffffffffffffffffffff1681565b6000600760008373ffffffffffffffffffffffffffffffffffffffff1673ffffffffffffffffffffffffffffffffffffffff16815260200190815260200160002060070160019054906101000a900460ff169050919050565b6000806000610ccb611516565b610cd485610bd9565b9250610cdf83610693565b9150600082118015610d325750600760008673ffffffffffffffffffffffffffffffffffffffff1673ffffffffffffffffffffffffffffffffffffffff1681526020019081526020016000206003015482115b15610e455781600760008773ffffffffffffffffffffffffffffffffffffffff1673ffffffffffffffffffffffffffffffffffffffff168152602001908152602001600020600601819055506001600760008773ffffffffffffffffffffffffffffffffffffffff1673ffffffffffffffffffffffffffffffffffffffff16815260200190815260200160002060070160006101000a81548160ff0219169083151502179055507f19b89e312990f1a9aa3ef03b24de652a9072f56a8bce7644b3b8d891305d0fad85604051808273ffffffffffffffffffffffffffffffffffffffff1673ffffffffffffffffffffffffffffffffffffffff16815260200191505060405180910390a16000935061119c565b81600760008773ffffffffffffffffffffffffffffffffffffffff1673ffffffffffffffffffffffffffffffffffffffff168152602001908152602001600020600301600082825403925050819055506000600760008773ffffffffffffffffffffffffffffffffffffffff1673ffffffffffffffffffffffffffffffffffffffff16815260200190815260200160002060070160006101000a81548160ff02191690831515021790555042600760008773ffffffffffffffffffffffffffffffffffffffff1673ffffffffffffffffffffffffffffffffffffffff168152602001908152602001600020600501819055506000600760008773ffffffffffffffffffffffffffffffffffffffff1673ffffffffffffffffffffffffffffffffffffffff168152602001908152602001600020600601819055506000821115611197576000809054906101000a900473ffffffffffffffffffffffffffffffffffffffff1673ffffffffffffffffffffffffffffffffffffffff166108fc839081150290604051600060405180830381858888f193505050501515610fe957600080fd5b7fa1c84e9116023626b77bda1fa15b7a58f715875390d6cdea5ae27f6d2d63101c85604051808273ffffffffffffffffffffffffffffffffffffffff1673ffffffffffffffffffffffffffffffffffffffff16815260200191505060405180910390a16080604051908101604052804281526020018673ffffffffffffffffffffffffffffffffffffffff16815260200183815260200184815250905080600a60008773ffffffffffffffffffffffffffffffffffffffff1673ffffffffffffffffffffffffffffffffffffffff1681526020019081526020016000206000820151816000015560208201518160010160006101000a81548173ffffffffffffffffffffffffffffffffffffffff021916908373ffffffffffffffffffffffffffffffffffffffff16021790555060408201518160020155606082015181600301559050507ffc259c995f3b1094a53469904177aa81084e21a71ab240d540f8b2fb2ca15ee36040518080602001828103825260048152602001807f73656e740000000000000000000000000000000000000000000000000000000081525060200191505060405180910390a15b600193505b505050919050565b6111ac6113f7565b600760008373ffffffffffffffffffffffffffffffffffffffff1673ffffffffffffffffffffffffffffffffffffffff16815260200190815260200160002061012060405190810160405290816000820160009054906101000a900473ffffffffffffffffffffffffffffffffffffffff1673ffffffffffffffffffffffffffffffffffffffff1673ffffffffffffffffffffffffffffffffffffffff168152602001600182018054600181600116156101000203166002900480601f0160208091040260200160405190810160405280929190818152602001828054600181600116156101000203166002900480156112e75780601f106112bc576101008083540402835291602001916112e7565b820191906000526020600020905b8154815290600101906020018083116112ca57829003601f168201915b50505050508152602001600282018054600181600116156101000203166002900480601f0160208091040260200160405190810160405280929190818152602001828054600181600116156101000203166002900480156113895780601f1061135e57610100808354040283529160200191611389565b820191906000526020600020905b81548152906001019060200180831161136c57829003601f168201915b50505050508152602001600382015481526020016004820154815260200160058201548152602001600682015481526020016007820160009054906101000a900460ff161515151581526020016007820160019054906101000a900460ff1615151515815250509050919050565b61012060405190810160405280600073ffffffffffffffffffffffffffffffffffffffff168152602001611429611555565b8152602001611436611555565b8152602001600081526020016000815260200160008152602001600081526020016000151581526020016000151581525090565b828054600181600116156101000203166002900490600052602060002090601f016020900481019282601f106114ab57805160ff19168380011785556114d9565b828001600101855582156114d9579182015b828111156114d85782518255916020019190600101906114bd565b5b5090506114e69190611569565b5090565b815481835581811511611511578183600052602060002091820191016115109190611569565b5b505050565b60806040519081016040528060008152602001600073ffffffffffffffffffffffffffffffffffffffff16815260200160008152602001600081525090565b602060405190810160405280600081525090565b61158b91905b8082111561158757600081600090555060010161156f565b5090565b905600a165627a7a72305820b838cf1f817d3859757b211d48a1393c705a43d16be8cd42fd26eb5b905dacb60029",
  "source": "pragma solidity ^0.4.11;\r\n\r\ncontract MonaLease {\r\n\r\n    struct Renter {\r\n        address addr;\r\n        string name;\r\n        string email;\r\n        uint256 weiHeld;\r\n        uint256 leaseStartDate;\r\n        uint256 lastPaymentDate;\r\n        uint256 owesWei;\r\n        bool inDefault;\r\n        bool _assigned;\r\n    }\r\n\r\n    struct Payment {\r\n        uint256 datePaid;\r\n        address fromAddr;\r\n        uint256 weiPaid;\r\n        uint256 fiatPaid;\r\n    }\r\n\r\n    uint256 constant weiPerEther = 1000000000000000000;\r\n\r\n    address contractOwner;\r\n    string description;\r\n    uint256 rentalInterval;\r\n    uint256 rentalFiatAmount;\r\n\r\n    uint256 public lastEthPriceAsFiat = 47500; //Default value\r\n    uint256 public lastWeiPerFiat;\r\n    uint256 rentalAmountAsWei;\r\n\r\n    mapping  (address => Renter) public renters;\r\n    address[] public renterList;\r\n    address[] rentersInDefault;\r\n    mapping (address => Payment) public payments;\r\n\r\n    address oracle;\r\n\r\n    event rentPaid(address renterAddress);\r\n    event rentDefault(address renterAddress);\r\n    event paymentAccepted(address renterAddress);\r\n    event paymentDeclined(address renterAddress);\r\n    event newLogEntry(string _description);\r\n\r\n    //Note that the rental amount is in AUD cents, eg 100 AU dollars would be 10000.\r\n    function MonaLease(string _description, uint256 _rentalInterval, uint256 _rentalFiatAmount, address _oracle) public {\r\n        contractOwner = msg.sender;\r\n        description = _description;\r\n        rentalInterval = _rentalInterval;\r\n        rentalFiatAmount = _rentalFiatAmount;\r\n        oracle = _oracle;\r\n    }\r\n    \r\n    //Add a new renter\r\n    function signLease(string _name, string _email) public {\r\n        if(renterExists(msg.sender)) {\r\n            revert();\r\n        }\r\n        Renter memory _renter = Renter({\r\n            addr: msg.sender,\r\n            name: _name,\r\n            email: _email,\r\n            weiHeld: 0,\r\n            leaseStartDate: now,\r\n            lastPaymentDate: now,\r\n            owesWei: 0,\r\n            inDefault: false,\r\n            _assigned: true\r\n        });\r\n        renters[_renter.addr] = _renter;\r\n        renterList.push(_renter.addr);\r\n        newLogEntry(\"Signed lease\");\r\n    }\r\n\r\n\r\n    modifier onlyContractOwner() {\r\n        if (msg.sender != contractOwner) {\r\n            revert();\r\n        }\r\n        _;\r\n    }\r\n\r\n    modifier onlyRenters() {\r\n        if (!renterExists(msg.sender)) {\r\n            revert();\r\n        }\r\n        _;\r\n    }\r\n    \r\n    modifier onlyOracle() {\r\n        if (msg.sender != oracle) {\r\n            revert();\r\n        }\r\n        _;\r\n    }\r\n\r\n\r\n    function getRenter(address _renterAddress) internal constant returns (Renter) {\r\n        return renters[_renterAddress];\r\n    }\r\n\r\n    function renterExists(address _renterAddress) internal constant returns (bool) {\r\n        return (renters[_renterAddress]._assigned);\r\n    }\r\n\r\n    //Add ETH to a renter's purse\r\n    function deposit(address _renterAddress) payable public {\r\n        _depositForRenter(_renterAddress, msg.value);\r\n    }\r\n\r\n    //If renter is registered, deposit into balance\r\n    function _depositForRenter(address _renterAddress, uint256 amount) onlyRenters internal {\r\n        if (amount > 0 && renterExists(_renterAddress)) {\r\n            renters[_renterAddress].weiHeld += msg.value;\r\n            paymentAccepted(_renterAddress);\r\n        }\r\n        else {\r\n            paymentDeclined(_renterAddress);\r\n        }\r\n    }\r\n\r\n    //If ETH sent to this contract, attempt to deposit it for renter registered under the sender's address.\r\n    function () payable public {\r\n        _depositForRenter(msg.sender, msg.value);\r\n    }\r\n\r\n    //See if any rent is due, and if so, pay it.\r\n    function run() public {\r\n        newLogEntry(\"Run()\");\r\n        //For each renter, getAmountDue and pay it\r\n        for(uint i = 0; i < renterList.length; i++) {\r\n            takeRent(renterList[i]);\r\n        }\r\n    }\r\n\r\n    //Return amount due as AUD and ETH\r\n    function getAmountDue(address _renterAddress)  public constant returns (uint256) {\r\n        Renter memory renter = getRenter(_renterAddress);\r\n        uint timeElapsed = now - renter.lastPaymentDate;\r\n        uint intervalsElapsed = timeElapsed / rentalInterval;\r\n        return intervalsElapsed * rentalFiatAmount;\r\n    }\r\n\r\n    //If (and only if) rent is due, send it to the owner's account.\r\n    function takeRent(address _renterAddress) internal returns (bool) {\r\n       // Renter memory renter = getRenter(_renterAddress);\r\n        uint256 dueFiat = getAmountDue(_renterAddress);\r\n        uint256 dueWei = fiatToWei(dueFiat);\r\n\r\n        if (dueWei > 0 && dueWei > renters[_renterAddress].weiHeld) {\r\n            renters[_renterAddress].owesWei = dueWei;\r\n            renters[_renterAddress].inDefault = true;\r\n            rentDefault(_renterAddress);\r\n            return false;\r\n        }\r\n        else {\r\n            renters[_renterAddress].weiHeld -= dueWei;\r\n            renters[_renterAddress].inDefault = false;\r\n            renters[_renterAddress].lastPaymentDate = now;\r\n            renters[_renterAddress].owesWei = 0;\r\n            if (dueWei > 0) {\r\n                contractOwner.transfer(dueWei);\r\n                rentPaid(_renterAddress);\r\n                Payment memory _payment = Payment({\r\n                    datePaid: now,\r\n                    weiPaid: dueWei,\r\n                    fiatPaid: dueFiat,\r\n                    fromAddr: _renterAddress\r\n                });\r\n                payments[_renterAddress] = _payment;\r\n                newLogEntry(\"sent\");\r\n            }\r\n            return true;\r\n        }\r\n    }\r\n\r\n    function fiatToWei(uint256 fiatValue) public constant returns (uint256 fiatAsWei) {\r\n        fiatAsWei = (weiPerEther / lastEthPriceAsFiat) * fiatValue;\r\n    }\r\n\r\n    function giveExchangeRateAdvice(uint256 exchangeRate) onlyOracle public {\r\n        newLogEntry(\"Received Oracle advice\");\r\n        lastEthPriceAsFiat = exchangeRate;\r\n        lastWeiPerFiat = weiPerEther / lastEthPriceAsFiat;\r\n        run(); //Do a rent run\r\n    }\r\n}",
  "sourcePath": "C:\\Users\\Nor\\documents\\consensys\\mona-lease\\contracts\\MonaLease.sol",
  "compiler": {
    "name": "solc",
    "version": "0.4.19+commit.c4cbbb05.Emscripten.clang"
  },
  "schemaVersion": "2.0.0",
  "updatedAt": "2018-06-12T06:27:49.317Z"
}