{
  "contractName": "MonaLease",
  "abi": [
    {
      "constant": true,
      "inputs": [
        {
          "name": "fiatValue",
          "type": "uint256"
        }
      ],
      "name": "fiatToWei",
      "outputs": [
        {
          "name": "fiatAsWei",
          "type": "uint256"
        }
      ],
      "payable": false,
      "stateMutability": "view",
      "type": "function"
    },
    {
      "constant": false,
      "inputs": [
        {
          "name": "_name",
          "type": "string"
        },
        {
          "name": "_email",
          "type": "string"
        }
      ],
      "name": "signLease",
      "outputs": [],
      "payable": false,
      "stateMutability": "nonpayable",
      "type": "function"
    },
    {
      "constant": true,
      "inputs": [],
      "name": "lastWeiPerFiat",
      "outputs": [
        {
          "name": "",
          "type": "uint256"
        }
      ],
      "payable": false,
      "stateMutability": "view",
      "type": "function"
    },
    {
      "constant": true,
      "inputs": [],
      "name": "lastEthPriceAsFiat",
      "outputs": [
        {
          "name": "",
          "type": "uint256"
        }
      ],
      "payable": false,
      "stateMutability": "view",
      "type": "function"
    },
    {
      "constant": true,
      "inputs": [
        {
          "name": "",
          "type": "address"
        }
      ],
      "name": "renters",
      "outputs": [
        {
          "name": "addr",
          "type": "address"
        },
        {
          "name": "name",
          "type": "string"
        },
        {
          "name": "email",
          "type": "string"
        },
        {
          "name": "weiHeld",
          "type": "uint256"
        },
        {
          "name": "leaseStartDate",
          "type": "uint256"
        },
        {
          "name": "lastPaymentDate",
          "type": "uint256"
        },
        {
          "name": "owesWei",
          "type": "uint256"
        },
        {
          "name": "inDefault",
          "type": "bool"
        },
        {
          "name": "_assigned",
          "type": "bool"
        }
      ],
      "payable": false,
      "stateMutability": "view",
      "type": "function"
    },
    {
      "constant": false,
      "inputs": [
        {
          "name": "exchangeRate",
          "type": "uint256"
        }
      ],
      "name": "giveExchangeRateAdvice",
      "outputs": [],
      "payable": false,
      "stateMutability": "nonpayable",
      "type": "function"
    },
    {
      "constant": false,
      "inputs": [],
      "name": "run",
      "outputs": [],
      "payable": false,
      "stateMutability": "nonpayable",
      "type": "function"
    },
    {
      "constant": true,
      "inputs": [
        {
          "name": "_renterAddress",
          "type": "address"
        }
      ],
      "name": "getAmountDue",
      "outputs": [
        {
          "name": "",
          "type": "uint256"
        }
      ],
      "payable": false,
      "stateMutability": "view",
      "type": "function"
    },
    {
      "constant": false,
      "inputs": [
        {
          "name": "_renterAddress",
          "type": "address"
        }
      ],
      "name": "deposit",
      "outputs": [],
      "payable": true,
      "stateMutability": "payable",
      "type": "function"
    },
    {
      "constant": true,
      "inputs": [
        {
          "name": "",
          "type": "uint256"
        }
      ],
      "name": "renterList",
      "outputs": [
        {
          "name": "",
          "type": "address"
        }
      ],
      "payable": false,
      "stateMutability": "view",
      "type": "function"
    },
    {
      "inputs": [
        {
          "name": "_description",
          "type": "string"
        },
        {
          "name": "_rentalInterval",
          "type": "uint256"
        },
        {
          "name": "_rentalFiatAmount",
          "type": "uint256"
        },
        {
          "name": "_oracle",
          "type": "address"
        }
      ],
      "payable": false,
      "stateMutability": "nonpayable",
      "type": "constructor"
    },
    {
      "payable": true,
      "stateMutability": "payable",
      "type": "fallback"
    },
    {
      "anonymous": false,
      "inputs": [
        {
          "indexed": false,
          "name": "renterAddress",
          "type": "address"
        }
      ],
      "name": "rentPaid",
      "type": "event"
    },
    {
      "anonymous": false,
      "inputs": [
        {
          "indexed": false,
          "name": "renterAddress",
          "type": "address"
        }
      ],
      "name": "rentDefault",
      "type": "event"
    },
    {
      "anonymous": false,
      "inputs": [
        {
          "indexed": false,
          "name": "renterAddress",
          "type": "address"
        }
      ],
      "name": "paymentAccepted",
      "type": "event"
    },
    {
      "anonymous": false,
      "inputs": [
        {
          "indexed": false,
          "name": "_description",
          "type": "string"
        }
      ],
      "name": "newLogEntry",
      "type": "event"
    }
  ],
  "bytecode": "0x606060405261b98c600455341561001557600080fd5b604051620012c9380380620012c983398101604052808051820191906020018051906020019091908051906020019091908051906020019091905050336000806101000a81548173ffffffffffffffffffffffffffffffffffffffff021916908373ffffffffffffffffffffffffffffffffffffffff16021790555083600190805190602001906100a7929190610100565b50826002819055508160038190555080600a60006101000a81548173ffffffffffffffffffffffffffffffffffffffff021916908373ffffffffffffffffffffffffffffffffffffffff160217905550505050506101a5565b828054600181600116156101000203166002900490600052602060002090601f016020900481019282601f1061014157805160ff191683800117855561016f565b8280016001018555821561016f579182015b8281111561016e578251825591602001919060010190610153565b5b50905061017c9190610180565b5090565b6101a291905b8082111561019e576000816000905550600101610186565b5090565b90565b61111480620001b56000396000f3006060604052600436106100a4576000357c0100000000000000000000000000000000000000000000000000000000900463ffffffff1680630d469483146100b05780631695533d146100e7578063302bf83b14610187578063322eab46146101b0578063644a1370146101d957806375355e3414610396578063c0406226146103b9578063e3edbfd3146103ce578063f340fa011461041b578063f8d9db8f14610449575b6100ae33346104ac565b005b34156100bb57600080fd5b6100d160048080359060200190919050506105eb565b6040518082815260200191505060405180910390f35b34156100f257600080fd5b610185600480803590602001908201803590602001908080601f0160208091040260200160405190810160405280939291908181526020018383808284378201915050505050509190803590602001908201803590602001908080601f0160208091040260200160405190810160405280939291908181526020018383808284378201915050505050509190505061060c565b005b341561019257600080fd5b61019a61087a565b6040518082815260200191505060405180910390f35b34156101bb57600080fd5b6101c3610880565b6040518082815260200191505060405180910390f35b34156101e457600080fd5b610210600480803573ffffffffffffffffffffffffffffffffffffffff16906020019091905050610886565b604051808a73ffffffffffffffffffffffffffffffffffffffff1673ffffffffffffffffffffffffffffffffffffffff1681526020018060200180602001898152602001888152602001878152602001868152602001851515151581526020018415151515815260200183810383528b8181546001816001161561010002031660029004815260200191508054600181600116156101000203166002900480156102fb5780601f106102d0576101008083540402835291602001916102fb565b820191906000526020600020905b8154815290600101906020018083116102de57829003601f168201915b505083810382528a81815460018160011615610100020316600290048152602001915080546001816001161561010002031660029004801561037e5780601f106103535761010080835404028352916020019161037e565b820191906000526020600020905b81548152906001019060200180831161036157829003601f168201915b50509b50505050505050505050505060405180910390f35b34156103a157600080fd5b6103b7600480803590602001909190505061090c565b005b34156103c457600080fd5b6103cc6109a2565b005b34156103d957600080fd5b610405600480803573ffffffffffffffffffffffffffffffffffffffff16906020019091905050610a72565b6040518082815260200191505060405180910390f35b610447600480803573ffffffffffffffffffffffffffffffffffffffff16906020019091905050610ab2565b005b341561045457600080fd5b61046a6004808035906020019091905050610abf565b604051808273ffffffffffffffffffffffffffffffffffffffff1673ffffffffffffffffffffffffffffffffffffffff16815260200191505060405180910390f35b7f569bfd1b450475abb105387eb78b154f74e4429de7c7301e7796a2880c23c49e82604051808273ffffffffffffffffffffffffffffffffffffffff1673ffffffffffffffffffffffffffffffffffffffff16815260200191505060405180910390a1600081118015610524575061052382610afe565b5b1561057e5734600760008473ffffffffffffffffffffffffffffffffffffffff1673ffffffffffffffffffffffffffffffffffffffff168152602001908152602001600020600301600082825401925050819055506105e7565b7ffc259c995f3b1094a53469904177aa81084e21a71ab240d540f8b2fb2ca15ee36040518080602001828103825260168152602001807f41636365707465642061646d696e207061796d656e740000000000000000000081525060200191505060405180910390a15b5050565b600081600454670de0b6b3a764000081151561060357fe5b04029050919050565b610614610f90565b610120604051908101604052803373ffffffffffffffffffffffffffffffffffffffff16815260200184815260200183815260200160008152602001428152602001428152602001600081526020016000151581526020016001151581525090508060076000836000015173ffffffffffffffffffffffffffffffffffffffff1673ffffffffffffffffffffffffffffffffffffffff16815260200190815260200160002060008201518160000160006101000a81548173ffffffffffffffffffffffffffffffffffffffff021916908373ffffffffffffffffffffffffffffffffffffffff160217905550602082015181600101908051906020019061071c929190611003565b506040820151816002019080519060200190610739929190611003565b50606082015181600301556080820151816004015560a0820151816005015560c0820151816006015560e08201518160070160006101000a81548160ff0219169083151502179055506101008201518160070160016101000a81548160ff021916908315150217905550905050600880548060010182816107ba9190611083565b916000526020600020900160008360000151909190916101000a81548173ffffffffffffffffffffffffffffffffffffffff021916908373ffffffffffffffffffffffffffffffffffffffff160217905550507ffc259c995f3b1094a53469904177aa81084e21a71ab240d540f8b2fb2ca15ee360405180806020018281038252600c8152602001807f5369676e6564206c65617365000000000000000000000000000000000000000081525060200191505060405180910390a1505050565b60055481565b60045481565b60076020528060005260406000206000915090508060000160009054906101000a900473ffffffffffffffffffffffffffffffffffffffff1690806001019080600201908060030154908060040154908060050154908060060154908060070160009054906101000a900460ff16908060070160019054906101000a900460ff16905089565b7ffc259c995f3b1094a53469904177aa81084e21a71ab240d540f8b2fb2ca15ee36040518080602001828103825260168152602001807f5265636569766564204f7261636c65206164766963650000000000000000000081525060200191505060405180910390a180600481905550600454670de0b6b3a764000081151561099057fe5b0460058190555061099f6109a2565b50565b60007ffc259c995f3b1094a53469904177aa81084e21a71ab240d540f8b2fb2ca15ee36040518080602001828103825260058152602001807f52756e282900000000000000000000000000000000000000000000000000000081525060200191505060405180910390a1600090505b600880549050811015610a6f57610a61600882815481101515610a3057fe5b906000526020600020900160009054906101000a900473ffffffffffffffffffffffffffffffffffffffff16610b57565b508080600101915050610a11565b50565b6000610a7c610f90565b600080610a8885610d3d565b92508260a001514203915060025482811515610aa057fe5b04905060035481029350505050919050565b610abc81346104ac565b50565b600881815481101515610ace57fe5b90600052602060002090016000915054906101000a900473ffffffffffffffffffffffffffffffffffffffff1681565b6000600760008373ffffffffffffffffffffffffffffffffffffffff1673ffffffffffffffffffffffffffffffffffffffff16815260200190815260200160002060070160019054906101000a900460ff169050919050565b6000610b61610f90565b600080610b6d85610d3d565b9250610b7885610a72565b9150610b83826105eb565b9050600081118015610b985750826060015181115b15610c2857808360c001818152505060018360e00190151590811515815250507f19b89e312990f1a9aa3ef03b24de652a9072f56a8bce7644b3b8d891305d0fad8360000151604051808273ffffffffffffffffffffffffffffffffffffffff1673ffffffffffffffffffffffffffffffffffffffff16815260200191505060405180910390a160009350610d35565b8083606001818151039150818152505060008360e0019015159081151581525050428360a001818152505060008360c00181815250506000811115610d30576000809054906101000a900473ffffffffffffffffffffffffffffffffffffffff1673ffffffffffffffffffffffffffffffffffffffff166108fc829081150290604051600060405180830381858888f193505050501515610cc857600080fd5b7fa1c84e9116023626b77bda1fa15b7a58f715875390d6cdea5ae27f6d2d63101c8360000151604051808273ffffffffffffffffffffffffffffffffffffffff1673ffffffffffffffffffffffffffffffffffffffff16815260200191505060405180910390a15b600193505b505050919050565b610d45610f90565b600760008373ffffffffffffffffffffffffffffffffffffffff1673ffffffffffffffffffffffffffffffffffffffff16815260200190815260200160002061012060405190810160405290816000820160009054906101000a900473ffffffffffffffffffffffffffffffffffffffff1673ffffffffffffffffffffffffffffffffffffffff1673ffffffffffffffffffffffffffffffffffffffff168152602001600182018054600181600116156101000203166002900480601f016020809104026020016040519081016040528092919081815260200182805460018160011615610100020316600290048015610e805780601f10610e5557610100808354040283529160200191610e80565b820191906000526020600020905b815481529060010190602001808311610e6357829003601f168201915b50505050508152602001600282018054600181600116156101000203166002900480601f016020809104026020016040519081016040528092919081815260200182805460018160011615610100020316600290048015610f225780601f10610ef757610100808354040283529160200191610f22565b820191906000526020600020905b815481529060010190602001808311610f0557829003601f168201915b50505050508152602001600382015481526020016004820154815260200160058201548152602001600682015481526020016007820160009054906101000a900460ff161515151581526020016007820160019054906101000a900460ff1615151515815250509050919050565b61012060405190810160405280600073ffffffffffffffffffffffffffffffffffffffff168152602001610fc26110af565b8152602001610fcf6110af565b8152602001600081526020016000815260200160008152602001600081526020016000151581526020016000151581525090565b828054600181600116156101000203166002900490600052602060002090601f016020900481019282601f1061104457805160ff1916838001178555611072565b82800160010185558215611072579182015b82811115611071578251825591602001919060010190611056565b5b50905061107f91906110c3565b5090565b8154818355818115116110aa578183600052602060002091820191016110a991906110c3565b5b505050565b602060405190810160405280600081525090565b6110e591905b808211156110e15760008160009055506001016110c9565b5090565b905600a165627a7a723058205cac93603bab85625f93ca09bd57b7d61ecf95cb7cca3f26186de1c1658a03a70029",
  "source": "pragma solidity ^0.4.11;\n\ncontract MonaLease {\n\n    struct Renter {\n        address addr;\n        string name;\n        string email;\n        uint256 weiHeld;\n        uint256 leaseStartDate;\n        uint256 lastPaymentDate;\n        uint256 owesWei;\n        bool inDefault;\n        bool _assigned;\n    }\n\n    uint256 constant weiPerEther = 1000000000000000000;\n\n    address contractOwner;\n    string description;\n    uint256 rentalInterval;\n    uint256 rentalFiatAmount;\n\n    uint256 public lastEthPriceAsFiat = 47500; //Default value\n    uint256 public lastWeiPerFiat;\n    uint256 rentalAmountAsWei;\n\n    mapping  (address => Renter) public renters;\n    address[] public renterList;\n    address[] rentersInDefault;\n    address oracle;\n\n    event rentPaid(address renterAddress);\n    event rentDefault(address renterAddress);\n    event paymentAccepted(address renterAddress);\n\n    event newLogEntry(string _description);\n\n    //Note that the rental amount is in AUD cents, eg 100 AU dollars would be 10000.\n    function MonaLease(string _description, uint256 _rentalInterval, uint256 _rentalFiatAmount, address _oracle) public {\n        contractOwner = msg.sender;\n        description = _description;\n        rentalInterval = _rentalInterval;\n        rentalFiatAmount = _rentalFiatAmount;\n        oracle = _oracle;\n    }\n\n    //Add a new renter\n    function signLease(string _name, string _email) public {\n        Renter memory _renter = Renter({\n            addr: msg.sender,\n            name: _name,\n            email: _email,\n            weiHeld: 0,\n            leaseStartDate: now,\n            lastPaymentDate: now,\n            owesWei: 0,\n            inDefault: false,\n            _assigned: true\n        });\n        renters[_renter.addr] = _renter;\n        renterList.push(_renter.addr);\n        newLogEntry(\"Signed lease\");\n    }\n\n    function isContractOwner(address _address) internal constant returns (bool)  {\n        return ( _address == contractOwner);\n    }\n\n    modifier onlyContractOwner() {\n        if (!isContractOwner(msg.sender)) {\n            revert();\n        }\n        _;\n    }\n\n    modifier onlyOracle() {\n        if (msg.sender != oracle) {\n            revert();\n        }\n        _;\n    }\n\n    function getRenter(address _renterAddress) internal constant returns (Renter) {\n        return renters[_renterAddress];\n    }\n\n    function renterExists(address _renterAddress) internal constant returns (bool) {\n        return (renters[_renterAddress]._assigned);\n    }\n\n    //Add ETH to a renter's purse\n    function deposit(address _renterAddress) payable public {\n        _depositForRenter(_renterAddress, msg.value);\n    }\n\n    //If renter is registered, deposit into balance\n    function _depositForRenter(address _renterAddress, uint256 amount) internal {\n        //newLogEntry(\"Accepted admin payment\");\n        paymentAccepted(_renterAddress);\n        if (amount > 0 && renterExists(_renterAddress)) {\n            renters[_renterAddress].weiHeld += msg.value;\n        }\n        else {\n            newLogEntry(\"Accepted admin payment\");\n        }\n    }\n\n    //If ETH sent to this contract, attempt to deposit it for renter registered under the sender's address.\n    function () payable public {\n        _depositForRenter(msg.sender, msg.value);\n    }\n\n    //See if any rent is due, and if so, pay it.\n    function run() public {\n        newLogEntry(\"Run()\");\n        //For each renter, getAmountDue and pay it\n        for(uint i = 0; i < renterList.length; i++) {\n            takeRent(renterList[i]);\n        }\n    }\n\n    //Return amount due as AUD and ETH\n    function getAmountDue(address _renterAddress) public constant returns (uint256) {\n        Renter memory renter = getRenter(_renterAddress);\n        uint timeElapsed = now - renter.lastPaymentDate;\n        uint intervalsElapsed = timeElapsed / rentalInterval;\n        return intervalsElapsed * rentalFiatAmount;\n    }\n\n    //If (and only if) rent is due, send it to the owner's account.\n    function takeRent(address _renterAddress) internal returns (bool) {\n        Renter memory renter = getRenter(_renterAddress);\n        uint256 dueFiat = getAmountDue(_renterAddress);\n        uint256 dueWei = fiatToWei(dueFiat);\n        if (dueWei > 0 && dueWei > renter.weiHeld) {\n            renter.owesWei = dueWei;\n            renter.inDefault = true;\n            rentDefault(renter.addr);\n            return false;\n        }\n        else {\n            renter.weiHeld -= dueWei;\n            renter.inDefault = false;\n            renter.lastPaymentDate = now;\n            renter.owesWei = 0;\n            if (dueWei > 0) {\n                contractOwner.transfer(dueWei);\n                rentPaid(renter.addr); \n            }\n            return true;\n        }\n    }\n\n    function fiatToWei(uint256 fiatValue) public constant returns (uint256 fiatAsWei) {\n        fiatAsWei = (weiPerEther / lastEthPriceAsFiat) * fiatValue;\n    }\n\n    function giveExchangeRateAdvice(uint256 exchangeRate) public {\n        newLogEntry(\"Received Oracle advice\");\n        lastEthPriceAsFiat = exchangeRate;\n        lastWeiPerFiat = weiPerEther / lastEthPriceAsFiat;\n        run(); //Do a rent run\n    }\n}\n",
  "sourcePath": "/Volumes/Data/Dev/Projects/Consensys/monalease/contracts/MonaLease.sol",
  "compiler": {
    "name": "solc",
    "version": "0.4.18+commit.9cf6e910.Emscripten.clang"
  },
  "schemaVersion": "1.0.1",
  "updatedAt": "2017-12-21T03:05:27.971Z"
}